:1008D8001408003F0006005B004F0066006D007DB5
:0608E8000007007F006F15
:10088C00E4FDFCC3ED9FEE6480F8EC648098501599
:10089C00E4FBFA0BBB00010AEB64644A70F50DBD76
:0508AC0000010C80DEDC
:0108B1002224
:1008B20075A008E4F583F582AF82EF25E02408F8FD
:1008C20008E6F5807FE87E0312088CA3E582640ABD
:0608D200458370E480DDA7
:03000000020800F3
:0C080000787FE4F6D8FD75811B020847E4
:10080C000208B2E493A3F8E493A34003F68001F248
:10081C0008DFF48029E493A3F85407240CC8C333ED
:10082C00C4540F4420C8834004F456800146F6DFBC
:10083C00E4800B01020408102040809008D8E47E6C
:10084C00019360BCA3FF543F30E509541FFEE493B1
:10085C00A360010ECF54C025E060A840B8E493A378
:10086C00FAE493A3F8E493A3C8C582C8CAC583CAA3
:10087C00F0A3C8C582C8CAC583CADFE9DEE780BE5B
:0108EE000009
:00000001FF
