:1009B0001408003F0006005B004F0066006D007DDC
:0609C0000007007F006F3C
:10097200E4FDFCC3ED9FEE6480F8EC6480985015B2
:10098200E4FBFA0BBB00010AEB64644A70F50DBD8F
:0509920000010C80DEF5
:01099700223D
:040917008E1C8F1D86
:10091B00E4F51EF51FAE1CAF1D7C007D0A12088C82
:10092B00EF25E02408F808E6F58075A0047F3C7EEF
:10093B0000120972AE1CAF1D7C007D0A12088CEDF3
:10094B0025E02408F808E6F58075A0087F3C7E00BA
:10095B00120972051FE51F7002051EC39405E51EE3
:06096B006480948040AF9F
:010971002263
:10099800E4F580900001AF82AE83120917A3E582C7
:0809A8006464458370F080EBEC
:03000000020800F3
:0C080000787FE4F6D8FD75811F020847E0
:10088C00C2D5EC30E709B2D5E4C39DFDE49CFCEE87
:10089C0030E715B2D5E4C39FFFE49EFE1208C2C335
:1008AC00E49DFDE49CFC80031208C230D507C3E430
:0608BC009FFFE49EFE22F6
:10080C00020998E493A3F8E493A34003F68001F261
:10081C0008DFF48029E493A3F85407240CC8C333ED
:10082C00C4540F4420C8834004F456800146F6DFBC
:10083C00E4800B01020408102040809009B0E47E93
:10084C00019360BCA3FF543F30E509541FFEE493B1
:10085C00A360010ECF54C025E060A840B8E493A378
:10086C00FAE493A3F8E493A3C8C582C8CAC583CAA3
:10087C00F0A3C8C582C8CAC583CADFE9DEE780BE5B
:0109C6000030
:1008C200BC000BBE0029EF8DF084FFADF022E4CC1A
:1008D200F875F008EF2FFFEE33FEEC33FCEE9DECE3
:1008E200984005FCEE9DFE0FD5F0E9E4CEFD22ED29
:1008F200F8F5F0EE8420D21CFEADF075F008EF2F73
:10090200FFED33FD4007985006D5F0F222C398FD63
:050912000FD5F0EA2200
:00000001FF
